:020000040800F2
:10000000380B002061020008512400081123000869
:100010004D240008E71D0008A73400080000000078
:10002000000000000000000000000000B1280008EF
:10003000EB1D0008000000005D250008C529000830
:100040007B0200087B0200087B0200087B0200089C
:100050007B0200087B0200087B0200087B0200088C
:100060007B0200087B0200087B0200087B0200087C
:100070007B0200087B0200087B0200087B0200086C
:100080007B0200087B0200087B02000800000000E1
:100090000000000000000000000000007B020008DB
:1000A000C52B0008052C0008E52B00087B02000882
:1000B0007B0200087B0200087B0200087B0200082C
:1000C0007B0200087B0200087B0200087B0200081C
:1000D0007B020008CD300008393100080000000024
:1000E0007B0200087B0200087B0200080000000081
:1000F0000000000000000000000000007B0200087B
:10010000000000007B0200087B0200087B02000860
:1001100000000000000000000000000000000000DF
:100120007B0200087B0200087B0200087B020008BB
:100130007B0200080000000000000000000000003A
:100140000000000000000000000000007B0200082A
:100150007B0200087B0200087B020008A93200082D
:100160007B0200087B020008000000000000000085
:10017000000000000000000000000000000000007F
:10018000000000007B0200080000000000000000EA
:100190007B02000800F002F800F052F80AA090E894
:1001A000000C82448344AAF10107DA4501D100F032
:1001B00047F8AFF2090EBAE80F0013F0010F18BFAD
:1001C000FB1A43F001031847105900003059000092
:1001D000103A24BF78C878C1FAD8520724BF30C873
:1001E00030C144BF04680C60704700000023002445
:1001F00000250026103A28BF78C1FBD8520728BF37
:1002000030C148BF0B607047662905F09A83732997
:1002100000F03783002070471FB505F088FB00F021
:1002200097FB04000020002105F008F9401C6060E5
:100230000020002105F0ECF8E0601FBD10B510BDF6
:1002400000F0B2FC1146FFF7E7FF03F0F1FF00F00A
:100250002BFF03B4FFF7F2FF03BC03F076FA0000B4
:100260000948804709480047FEE7FEE7FEE7FEE74A
:10027000FEE7FEE7FEE7FEE7FEE7FEE70448054986
:10028000054A064B70470000C9290008950100087F
:1002900038050020380B00203807002038070020E0
:1002A000704700000FB4044910B503AA029800F08B
:1002B000EDFA10BC5DF814FB480000200FB41CB52B
:1002C000074B06AA7B4469460090059800F0AFFAF8
:1002D0000020694600F0BEFA1CBC5DF814FB00006B
:1002E0008D0500002DE9F0410E46044600202062F5
:1002F0002046E168884730B3252805D0D4E901219C
:100300009047206A401CF2E7E168204600278847B2
:10031000050018D0A5F14100192802D820354FF466
:1003200000673246294620462760FFF76DFF40B13F
:10033000012804D0F61D26F007060836D8E7361D3A
:10034000D6E72846DAE7206ABDE8F08170B50C46AA
:100350000546012A05D02878800600D5EA690023E1
:1003600002E0012305E05B1C934202D2E05C00281E
:10037000F9D1A869E618C01AA861286A1844286249
:100380002846AFF3008004E0D5E9012114F8010B01
:100390009047B442F8D32846AFF3008070BD4FF0C9
:1003A000000200B5134694469646203922BFA0E8C5
:1003B0000C50A0E80C50B1F12001BFF4F7AF0907D1
:1003C00028BFA0E80C5048BF0CC05DF804EB8900C2
:1003D00028BF40F8042B08BF704748BF20F8022B05
:1003E00011F0804F18BF00F8012B7047704770471D
:1003F0007047704710B500F0AFFA006810BD10B537
:10040000044600F0A9FA046010BD70472DE9FF4FC3
:100410000C461E464FF0FF378BB0D2E90001DDF8E5
:1004200060800A908A46C1F30A5505B93D4600210D
:1004300008464FF00000BAF1000F00F4400005DA62
:1004400000EB80004FF4400101EA50004FEA905960
:10045000B9F1010F00DDB9460A9850EA4A000ED002
:1004600044F61050A5F2FF3545432F14B8F1000FA4
:100470001ED07542291E1EDDC9F100021CE0B8F134
:10048000010F4FF0000001D0302103E0F24305E0FE
:100490002154401CB042FBDB304600220021215495
:1004A0000B99C1F80880C1E900200FB0BDE8F08FBA
:1004B000BD1B6D1CDEE74A4600DA694206A800F063
:1004C000FDFA06AB93E8070003AB83E8070050464C
:1004D0000A9901F07AF88DE80700A0F500501F385E
:1004E00000900398002D09DD42F21F014A4608449E
:1004F00003A90390684601F004FB08E0A0F5005052
:100500004A461F3803A90390684601F022FB8DE894
:1005100007000004000C03D04FF0FF30410800E05A
:100520001046B8F1000F03D00022009215461EE0DD
:10053000751E05D400F014FA303262556D1EF9D5DF
:10054000B3460122084302D000227F1C04E0207839
:10055000302801D100227F1E002A099786D01DE095
:10056000112D07DA00F0FCF9303262556D1C50EAAB
:100570000102F5D1084302D00098C8B10EE0002175
:10058000681E05E0235C625C63542254401E491CD3
:100590008142F7DBAB46A81B401E0990002004F8FF
:1005A0000B000B98099AC0F80880C0E9002B7CE783
:1005B00011264FF0000859E72DE9F04F8846044610
:1005C000D21D22F0070191B0D1E90001CDE90A0165
:1005D00002F092FF02460B98C00F01D02D2007E0D9
:1005E0002068810701D52B2002E0202101EAC0000C
:1005F000032A099001D0072A05DB0346414620461D
:1006000000F0FCF90BE12078800601D5E06900E0FC
:100610000620B8F1650F814606D0B8F1660F18D0F4
:10062000B8F1670F70D131E00020B9F1110F0090DF
:1006300001DB112301E009F101030AAA01A90CA8B9
:10064000FFF7E4FEDDE90C70002609F101058346A1
:1006500047E001204B4600904FF000470AAA01A94D
:100660000CA8FFF7D3FEDDE90DB00C995D4600261E
:1006700010B909F101000D18B9EB050003D4C0F160
:10068000FF3609F10105A5EB09002BE0B9F1010FD7
:1006900001DA4FF001090020B9F1110F009048462E
:1006A00001DD112300E003460AAA01A90CA8FFF707
:1006B000ADFEDDE90C704D4600268346207800072C
:1006C0000AD4AB4500DA5D4601A8012D04DD4119CD
:1006D00011F8011C302907D04F4502DA17F1040F39
:1006E00004DA012082460FE06D1EEEE7002F02DCE7
:1006F000ED1B3E4403E0781CA84200DD7D1CB81BC6
:1007000000F1010A4FF000472078000703D4AA4502
:1007100001DB4FF0FF3A0021B7F1004F0DF1430824
:100720008DF8431024D002202B23002F01DA7F42C2
:100730002D230A21021EA0F1010000DC5FB197FB0E
:10074000F1FC97FBF1F201FB1C7C17460CF1300C1D
:1007500008F801CDEEE7A8F1010003702188090532
:1007600001D5452100E06521A0F1010800F8011C38
:1007700009980FA9A1EB0807FF1D00B1012041193D
:1007800001EBEA70A1693844081A401EA061207884
:10079000C00602D42046AFF30080099828B1D4E9FE
:1007A00001219047206A401C20622078C00622D593
:1007B0002046AFF300801EE0002E04DBB34502DDCF
:1007C00001A8805D00E03020D4E901219047206A33
:1007D000401C2062761CAAF101005FEA000A0AD1DF
:1007E00000F0B6F8C0680168405CD4E90121904788
:1007F000206A401C2062281EA5F10105DCDC07E010
:10080000D4E9012118F8010B9047206A401C2062AE
:10081000381EA7F10107F3DC2046AFF30080032068
:1008200011B043E601694A1C02610878704700B5BF
:100830008FB0CDE901310021059105497944CDE919
:10084000031011466846FFF74DFD0FB000BD0000D4
:10085000E5FFFFFF0A6802F8010B0A60704710B558
:10086000436913B1AFF3008001E0FFF76FFD012092
:1008700010BD127800F124010A7000224A70012292
:10088000EDE711684FF0FF32E9E70000074B70B564
:100890000D467B44FFF7CBFF0446284600F07CF969
:1008A00010B14FF0FF3070BD204670BD0F3000001A
:1008B0000FB4002300B589B00CA900910B99CB604F
:1008C000204B7B440693204B7B44079304236FF01B
:1008D0000042CDE901321D4A7A446B460892024635
:1008E000002005F090F809B05DF814FB70B50646DD
:1008F0004FF0FF3015460C46324686B00091CDE9E8
:10090000010169460020049004A8FFF7D1FF0346C7
:100910000498211825B108B10A4600E022462A6051
:1009200000280DD0002B02DD0098884208D0324606
:10093000081B69460094CDE9010404A8FFF7B8FF3D
:1009400006B070BDB7010000CF0100000F0100002C
:1009500000487047F804002000487047D804002081
:1009600030B5B0F10A024FEA900E71F100034EEA81
:10097000817EB0EB0E0061EB91014FEA101E4EEA52
:10098000017E10EB0E0041EB11114FEA102E4EEAE2
:10099000016E10EB0E0041EB11214FEA104E4EEAB2
:1009A000014E10EB0E0041EB1141401841F10001E6
:1009B0004FEAD00040EA41704FEAD10110EB8005C8
:1009C0004FEA810444EA907444EB01046D1944EB4E
:1009D0000404521BA3414FF0000348BF0A3200D564
:1009E00030BD401C41F1000130BD10B5044600F09F
:1009F00001F90068005D00F0010010BD2DE9F04133
:100A00001F46044603260168072A01F4006004DB40
:100A100008B116A505E016A503E008B115A500E08C
:100A200015A521F010002060A069C01EA0610FB1C3
:100A3000401EA0612046AFF300804FB1D4E90121F0
:100A400038469047206A401C2062C01C206206E0A5
:100A5000206AFAE7D4E9012115F8010B9047761EC8
:100A6000F8D22046AFF30080BDE8F0814E414E0041
:100A70006E616E00494E4600696E6600426842B182
:100A8000016811F8013B23B1521EC0E9001218465B
:100A900070470121C160881E704742685AB1C3681F
:100AA000016843B983688B4205D0491E521CC0E9D6
:100AB0000012002070474FF0FF3070472DE9F047DB
:100AC000814616468AB0334878440DC88DE80D003B
:100AD00030487844801C03AC0DC884E80D0041F612
:100AE0009B300844372190FBF1F290FBF1F5A5F122
:100AF000800501FB12041B3C02D56442012000E08A
:100B00000020DFF890A080460027FA44AAF1BE0A30
:100B10000DE0E00709D03246684607EB47010AEBD3
:100B2000810101F016F88DE8070064107F1C002C8D
:100B3000EFD1184F7F44AC3F18E0E80714D007EB23
:100B400004100DF1180A90E80E008AE80E00C06843
:100B5000F04201D198190890324606A903A800F086
:100B6000F8FF03AB83E807006D10641C002DE4D18F
:100B700032466946B8F1000F03A802D000F0C1FF69
:100B800001E000F0E6FFC9E90001C9F808200AB059
:100B9000BDE8F087F44F0000007B00F08000704754
:100BA00000487047D80400207546FFF7F9FFAE46AD
:100BB00005006946534620F00700854618B020B569
:100BC000FFF75CFBBDE820404FF000064FF0000748
:100BD0004FF000084FF0000B21F00701AC46ACE8E5
:100BE000C009ACE8C009ACE8C009ACE8C0098D4652
:100BF0007047000010B5FFF7ABFE001D10BD00BF31
:100C00003D4800002DE9FF4F064689B00878FF28CF
:100C100006D0491C2D2805D000244FF0000908E01B
:100C200000200CE00124F8E709EB8903491C00EBE4
:100C300043090878FF28F7D114B1C9F100008146B3
:100C4000107800252C46AA4629462D2801D02B28AD
:100C500004D1521C2D2813D0002082468B461078D8
:100C6000FF280FD04FF0000C0A21521CA5FB017881
:100C700004FB018105FB0C11C5194BEB0104EEE7E8
:100C80000120EAE7002108464FF00000BAF1000F0A
:100C900002D000EB80004008C0F38158B8F1010F8A
:100CA00001DD4FF0FF380C9809EB000755EA04000E
:100CB00009D04FF0020917F5FA7F0BDA4FEACA7034
:100CC000C6E900B012E04FEACA70C6E900B00DB044
:100CD000BDE8F08FB7F5FA7F0DDDF0487844D0E934
:100CE0000010C6E9001040EACA707060FFF734FED9
:100CF000C0F80090EBE7391E02DAC8F1000200E00C
:100D0000424600DA794206A8FFF7D8FE06AB93E820
:100D1000070003AB83E8070044F23E005BEA0401EE
:100D20000090584604D144F21E012C465D460091C5
:100D3000210C0904014306D10099240444EA154416
:100D40002D041039009104F07F41014306D1009930
:100D5000240244EA15642D020839009104F0704120
:100D6000014306D10099240144EA15742D01091F9D
:100D7000009104F04041014306D10099A40044EAE7
:100D80009574AD00891E009104F00041084304D120
:100D900000986D196441401E009042466846002F3D
:100DA000CDE9014503A902DD00F0E7FE01E000F016
:100DB000BCFEBAF1000F04460D4601D084F0004499
:100DC00040F2FF7724F00040284303D0C4F30A50D8
:100DD000B84212D1FFF7C0FDC0F80090C4F30A502A
:100DE000B8420AD1AE487844D0E90010C6E90010F4
:100DF00004F000410843706069E7C6E9005466E703
:100E00002DE9FF4F1F464FF0000A4FF0FF384546CF
:100E100091B0D7E90146CDF83CA0FFF799FDC06835
:100E20000168405C1090B96912986D1C8847396A56
:100E3000814688470028F6D1B9F1FF3F0AD0002E3D
:100E400024F4D06411DDB9F12B0F08D0B9F12D0FC6
:100E50000BD102E0404615B03AE744F48064B9692A
:100E600012986D1C8847761E8146600504A901D53D
:100E70002D2000E02B20002E01F1010B0DF1300898
:100E80008DF810003FDDB9F1690F08D0B9F1490FB5
:100E900005D0B9F16E0F02D0B9F14E0F1CD13B460F
:100EA00001A8009580E85002DDE912126FF00200FF
:100EB00004F0ADFDC11CCED10EE0B96912986D1CD5
:100EC000884781461398761E44F4007405600F9895
:100ED000401C002E0F9016DDB9F1300FEDD0B9F1A6
:100EE000780F02D0B9F1580F0DD10F9801280AD10F
:100EF0003B46CDE90054DDE91212001F029604F0D2
:100F000084FDC11CA7D1109989453ED144F08004CD
:100F100006E01399681CAAF1010A44F40074086001
:100F2000B9696D1C1298761E884730288146F0D02A
:100F30002BE01099894505D1200603D4761E44F094
:100F4000800418E0484602F0F9FB08B3761E0DF164
:100F500023018B4544F4007408D2A9F130000BF84A
:100F6000010B200607D5AAF1010003E0200602D4F8
:100F70000AF101008246A00502D51399681C086099
:100F8000B96912986D1C88478146002ED1DC53E068
:100F9000002E51DDB9F1650F02D0B9F1450F4BD1EB
:100FA000A00549D5B9696D1C1298761E24F44074C9
:100FB0008847002E81460CDD2B2804D0B9F12D0F77
:100FC00007D144F48074B96912986D1C8847761E65
:100FD0008146E00501D52D2100E02B2108F8011BF9
:100FE000CDF8008021E0761E0DF13901884544F4EA
:100FF00000740CD2A9F1300010F0FF0088F8000056
:1010000002D10099884509D908F1010806E0E005F8
:1010100001D5244801E042F20F708246B969129866
:101020006D1C8847814613980560002E04DD4846F4
:1010300002F084FB0028D6D1F96912988847FF2076
:1010400053468BF8000088F8000000200A900B90AF
:1010500004AA0CA90AA8FFF7D5FDA00502D46FF0D9
:101060000100F8E614F0240F0AD0E00714D1386824
:10107000DDE90A12031D3B600068C0E900120BE0C5
:101080000AA9684602F0F4FAE00705D13868009A28
:10109000011D3960006802602846DCE6184E000039
:1010A0000E4D0000F1D8FFFF10B50446AFF30080ED
:1010B0002046BDE81040FFF7CCB800004FF0013CDF
:1010C00050F8042B51F8043B9A4221D1A2EB0C03B7
:1010D000934313EACC1317D150F8042B51F8043B77
:1010E0009A4215D1A2EB0C03934313EACC130BD114
:1010F00050F8042B51F8043B9A4209D1A2EB0C039F
:10110000934313EACC13DBD04FF00000704700BFCD
:10111000D01A01BAB1FA81F101F0180122FA01F0F6
:10112000CB40C1F12001DBB2C0B2C01A2CFA01F3EE
:10113000D11A914311EAC311E6D170472DE9FF4F4F
:101140001F464FF03C0987B04FF00042DDE9141014
:1011500001F10108DDF858A002EA40500390002098
:1011600004908346054604460590B969461E0898D2
:101170008847AAF1010A0290BAF1000F37DD029800
:101180002E2815D0102100F012FA00282ADB4FF08B
:10119000010B0499014316D0B9F1000F0BDB4A464D
:1011A000C11700F0F1F905430C43A9F1040905E06A
:1011B0000120059007E008B145F0010501200490E9
:1011C000059800B9361DB969089808F101088847E3
:1011D000BBF1000FAAF1010A0290CDD00999C1F824
:1011E0000080C9E70298702808D0502806D0F96915
:1011F00008988847BBF1000F14D04FE00020029000
:101200000120BBF1000F049009D0B969089808F1DA
:1012100001088847AAF10109B9F1000F07DCF96953
:10122000089888476FF001000BB0BDE8F08F2B28BD
:1012300004D02D280CD14FF0FF300490B9690898E4
:1012400008F101088847A9F10109B9F1000FE6DDAD
:10125000411CE4D00A2100F0AAF90028DFDB029942
:1012600008F1010801EB810100EB41000290B9692E
:10127000089888470A2100F09AF9099AA9F101090A
:10128000B9F1000FC2F8008001DD0028E7DAF96942
:10129000089888470499029800FB016655EA040003
:1012A00004D004F04041090002D006E0039898E021
:1012B000A40044EA9574AD00B61E04F00041080095
:1012C00002D16D196441761E159810F0240F03D0D9
:1012D0004FF00B095C4803E04FF028096FF07D00E8
:1012E0008246564507DAAAEB06018944B9F1410F57
:1012F00001DD4FF0410901200021A9F1010200F0B8
:1013000043F9024628400B462140084301D0012101
:1013100000E00021501E029143F1FF31284021409E
:10132000084301D0012000E000200299834651EAE1
:101330000B014FD0002108464FF00000039900F444
:10134000400039B100EB80004FF4400100EBD07059
:1013500001EA60008015012802DD4FF0FF3000E057
:1013600013D0401C36D0029860B3BBF1000F0CD1F3
:101370004A460120002100F007F928402140084397
:1013800001D0012000E00020E0B101204A46002108
:1013900000F0FAF8034640190A4661412D1A8C41C3
:1013A00011D3B9F1400F09DD159810F0240F02D0C8
:1013B000AAF1340603E0AAF1170600E0761C002526
:1013C0004FF0004406E05B1E42F1FF3220EA0305C5
:1013D00021EA0204CAF10100B04206DA1B4903986F
:1013E00008430190002000900EE0039AC4F3D3213B
:1013F000E80A0A43164940EA44500A433146CDE917
:101400000002684602F090F9159810F0240F0BD0F6
:101410001598C00715D13868DDE90012031D3B603F
:101420000068C0E900120CE002A8694602F020F949
:101430001598C00705D13868029A011D3960006807
:1014400002604046F0E6000002FCFFFF0000F07F73
:101450000000F03F2DE9FF4F92461D4685B04FF04A
:101460000041DDE9124BDDE914727F1E01EA4B50A9
:10147000414940F0FF4940EA0108002122F02000E4
:101480004928049102D04E2828D04CE03BA00126E8
:1014900007C88DE80700A9690698641C88477F1E65
:1014A000014606D41DF8060018B121F02001814242
:1014B0000BD0E96906988847032E34D0082E32D025
:1014C0006FF0010009B0BDE8F08F761C032E01D04B
:1014D000082EE0D1601CCAF80000DCE7A969069874
:1014E000641C88477F1E2AD420F02000412826D182
:1014F000A9690698641C88477F1E20D420F020002C
:101500004E281CD1A9690698641C88477F1E48F4A0
:10151000002849F48009CAF8004001D4282806D0E0
:10152000E969069888475FEACB7012D022E0A96982
:101530000698641C88477F1E01D4002803DAE969F5
:1015400006988847BCE72928F1D1641CCAF80040F6
:10155000E9E71BF0240F07D028680499031D2B60CE
:101560000068C0E9001805E02868021D2A600068CC
:10157000C0F800902046A5E70000F07F494E46499C
:101580004E49545900000000B2F120030AD5C2F1BF
:10159000200301FA02F120FA03F300FA02F041EA13
:1015A0000301704700FA03F14FF0000070473A283A
:1015B00000D2303820F02002412A01D3A2F13700B6
:1015C000884201D34FF0FF3070475FEA400C08BFFC
:1015D00091F0000F4FEA8C234FEAC12243EA5151A8
:1015E0004FEA1C5018BF00F5F0404FEA300018BF1A
:1015F00041F000415FEA6C5C00F02980BCF1FF3FE4
:1016000008BF40F080407047130C06BF12044FF033
:10161000100C4FF0000C130E04BF12020CF1080C5A
:10162000130F04BF12010CF1040C930F04BF9200BE
:101630000CF1020CD30F04BF52000CF1010C114647
:101640004FF00002A0F11F00A0EB0C00704711F05A
:10165000004F08BF704731F000413FF4D5AF0B0C8D
:1016600006BF09044FF0100C4FF0000C0B0E04BF26
:1016700009020CF1080C0B0F04BF09010CF1040C5A
:101680008B0F04BF89000CF1020CCB0F04BF490083
:101690000CF1010CCCF12003A0EB0C0022FA03F3B7
:1016A00002FA0CF241EA030100F10100704720F058
:1016B0007F4C80EA030023F07F47ACEB070303F580
:1016C0007C5300F0004003F1FF032DE980494FEA0D
:1016D000154B09B44FEA144325EA0B4E24EA03489C
:1016E0000FF2042606EB132749083E785FEA320220
:1016F00003FB0667C7F5000707FB06F64FEA5437FA
:101700004FEAD64606F1020607FB066CCCF1005CF8
:101710004FEA1C472CEA074C07FB06F40CFB06F5C6
:1017200004EB15464FEA961634BF00204FF00040F8
:101730004FEAD13706FB07FC4FEA1C4C0CFB0BF7BA
:10174000D21B03FB0CF761EB07010CFB0EF7B0EBB0
:10175000074072EB17420CFB08F734BFA2EB0742BD
:10176000B2EB074261EB17414FEA0C444FEA910795
:1017700006FB07FC4FEA1C4C0CFB0BF7B0EBC74019
:1017800072EB573203FB0CF734BFA2EBC742B2EB4C
:10179000C74261EB57310CFB0EF7B0EBC70072EBA1
:1017A00057720CFB08F734BFA2EBC702B2EBC702BB
:1017B00061EB5771039F4FEA816141EA921104EB9B
:1017C000CC044FEAD1374FEA826206FB07FC42EABB
:1017D00090124FEA80604FEA1C4C0CFB0BF7D21BB7
:1017E00003FB0CF761EB07010CFB0EF7B0EB0740B6
:1017F00072EB17420CFB08F734BFA2EB0742B2EBC7
:10180000074261EB17414FEA8C554FEA910704EB11
:101810009C2406FB07FC4FEA1C4C0CFB0BF7B0EBBF
:10182000C74072EB573203FB0CF734BFA2EBC74241
:10183000B2EBC74261EB57310CFB0EF7B0EBC700C0
:1018400072EB57720CFB08F734BFA2EBC702B2EB86
:10185000C70261EB577115EB4C254FEA816141EAF4
:1018600092114FEA82624FEAD13742EA901206FBA8
:1018700007FC44F100044FEA80604FEA1C4C0CFB6B
:101880000BF7D21B03FB0CF761EB07010CFB0EF708
:10189000B0EB074072EB17420CFB08F734BFA2EB2A
:1018A0000742B2EB074261EB174115EB1C154FEAFB
:1018B000813141EA92414FEA823242EA90424FEA54
:1018C00080304FEA0C7644F1000448EA03434EEAC4
:1018D0000B484FF0000EB2EB080C71EB030724BF6E
:1018E000624639464EEB0E0E4FF0000B0018524187
:1018F00049414BEB0B0BB2EB080C71EB03077BF18F
:10190000000B24BF624639464EEB0E0E4FF0000B23
:101910000018524149414BEB0B0BB2EB080C71EB39
:1019200003077BF1000B24BF624639464EEB0E0ED7
:1019300051EA020718BF46F0010616EB0E7655F184
:10194000000254F1000103D5BDE88901BDE800881B
:10195000BDE88901BDE80048B619524141EB0101DB
:10196000A3F10103704780807F7E7D7C7B7A79784C
:10197000777676757473727171706F6E6E6D6C6C54
:101980006B6A6A69686867666665646463636261F6
:101990006160605F5F5E5E5D5D5C5C5B5B5A5A5977
:1019A00059585857575656555555545453535252E3
:1019B0005251515050504F4F4F4E4E4D4D4D4C4C3B
:1019C0004C4B4B4B4A4A4A49494948484847474784
:1019D00047464646454545444444444343434342C1
:1019E000424242414141000046EA0646A3F5705397
:1019F0004FEA164646EA42564FEAD22242EA41529E
:101A000010B54FEAD121A3F1010300F017F820F03F
:101A1000004000F1010C00F0004701EB00501146BE
:101A2000BCF5006F40EA070000D210BD02484FF03D
:101A3000000140EA070010BD0000F07F002B26D413
:101A4000770021D01CB54FEA370703B44FF01000E0
:101A50004FF010014FF000000FBCBDE810400BF13B
:101A6000010BBBF1010F08BF5FEA170722BF12F19C
:101A7000010211F101014FF0004143F1000300F0B8
:101A8000004043EA00007047F9D35708DAE746EA16
:101A9000064613F1400F4FEA16461FDD13F1200FE3
:101AA000DFBF16430A46002120335B42C8D0C3F192
:101AB000200746EA064602FA07F74FEA164646EAC4
:101AC0000706C3F1200722FA03F201FA07F721FA09
:101AD00003F14FF0000342EA0702B1E746EA0206CB
:101AE00046EA06464FEA164646EA0106BCBF46EA03
:101AF0000646360C4FF000034FF000024FF0000195
:101B00009EE72DE9C048934630B491E8380007C8F5
:101B100031EA400C48BF34EA430C03D5FFF7C7FD58
:101B2000FFF78CFFF0BCBDE800882DE9C048934664
:101B300030B491E8380007C831EA400C48BF34EAB5
:101B4000430C03D5FFF7B3FDFFF74EFFF0BCBDE834
:101B500000882DE9C048934630B491E8380007C8A2
:101B600010F0804F08BF13F0804F03D100F019F838
:101B7000FFF764FFF0BCBDE800882DE9C04893463C
:101B800030B491E8380007C810F0804F08BF13F058
:101B9000804F03D100F005F8FFF726FFF0BCBDE849
:101BA000008820F07F4780EA030023F07F4C07EB9A
:101BB0000C03A3F57C5300F00040A3F1FE0392F068
:101BC000000F00F0B38095F0000F00F077802DE952
:101BD00001494FEA11404FEA144621EA004800FB50
:101BE00006FC24EA064708FB06F607FB08F800FB9C
:101BF00007F718EB06484CEB164C4FEA124B18EB64
:101C000007484FEA15464CEB174022EA0B4E0BFBF8
:101C100006FC25EA06470EFB06F607FB0EFE0BFB4D
:101C200007F71EEB064E4CEB164C4FF000061EEB72
:101C3000074E4CEB174B18EB0B0840F1000018EB6C
:101C40000E0B58EB000840F100008F1A4FF0000116
:101C50003CBFC943661B14BFB5EB040C00213CBF5D
:101C6000C943F61B4FEA17444EEA8E0E27EA044595
:101C70004FEA1C4704FB07622CEA074C05FB07F7F9
:101C80000CFB05F604FB0CFC16EB074642EB174277
:101C900016EB0C4642EB1C421BEB060658EB02020D
:101CA000414146EA9E0601D5BDE80189B619524177
:101CB00041EB0101A3F10103BDE801894FEA14459D
:101CC0004FEA114724EA054621EA074C05FB07F4D1
:101CD00006FB07F70CFB06F105FB0CFC11EB0741BB
:101CE00044EB17444FEA124711EB0C4144EB1C4400
:101CF00022EA074C05FB07F206FB07F70CFB06F68A
:101D000005FB0CFC16EB074642EB174216EB0C46A4
:101D100042EB1C456A1854F1000148BF7047B619E0
:101D2000524141EB0101A3F10103704795F0000F0F
:101D300037D04FEA11424FEA144721EA024624EA1B
:101D4000074C02FB07F106FB07F70CFB06F402FB4E
:101D50000CFC14EB074441EB17414FEA154714EB19
:101D60000C4441EB1C4125EA074C02FB07F506FB3E
:101D700007F70CFB06F602FB0CFC16EB074645EBDF
:101D8000174516EB0C4645EB1C42121951F10001A8
:101D900048BF7047B619524141EB0101A3F101035D
:101DA00070474FEA14454FEA114724EA054621EAF5
:101DB000074C05FB07F106FB07F70CFB06F24FF09B
:101DC000000605FB0CFC12EB074241EB174112EB3E
:101DD0000C4251EB1C4148BF7047921841EB010186
:101DE000A3F10103704700BFFEE7704710B5134829
:101DF0000068401C114908600846006810490968DD
:101E0000884218D101200F490860801E0B490860E4
:101E100000200B49086000F047FC00200A490860D8
:101E20009FED0A0A0A4880ED000A18210948FEF7CA
:101E3000B6FA012010BD0020FCE7000004000020DD
:101E400000000020A88240420C000020000000009A
:101E500050000020BC00002010B540210548FEF7CE
:101E60009EFA47F230504FF08041486202490860C4
:101E700010BD0000880400202408004000B589B08F
:101E80000121084600F07CFB0121084600F068FBB8
:101E900001220021264800F0FFF9012211462448C2
:101EA00000F0FAF90320079002208DF820000320AB
:101EB0008DF8210001208DF822008DF8230007A95C
:101EC0001B4800F0A1F94FF6FF7005900020ADF817
:101ED0001000ADF81800ADF8120004A94FF08040D2
:101EE00001F0B2F800231A4603214FF0804000F0C1
:101EF000DFFE01A800F045FF0A20ADF80C0001A9A3
:101F0000400700F007FF0121880700F0BFFE012213
:101F10001146900700F03EFF47F230504FF08041ED
:101F200048620121880700F0B7FE09B000BD00003B
:101F30000000024010B504460B4884819FED0B0A57
:101F400080ED010A9FED090A80ED020AB0EE0A0A4F
:101F500080ED000AFFF792FF00F00AF8FFF77CFF20
:101F6000204600F05FFE10BDC804002000001A45A6
:101F700000B589B00121042000F002FB01210220FC
:101F800000F0EEFA02220621254800F085F902222F
:101F90000721234800F080F9C020079002208DF827
:101FA000200003208DF8210001208DF822008DF8FB
:101FB000230007A91A4800F027F94FF6FF70059093
:101FC0000020ADF81000ADF81800ADF8120004A91B
:101FD000144801F039F800231A460321114800F093
:101FE00067FE01A800F0CDFE0A20ADF80C0001A9A3
:101FF0000C4800F08FFE01210A4800F047FE012244
:102000001146084800F0C6FE47F230500549243119
:1020100008600121034800F03FFE09B000BD000048
:10202000000402400008004070B505460C466D48AB
:102030000068401C6B4908606B480068096888426A
:1020400070D10B2D6FD2DFE805F006182A3E4F5EE7
:102050006F81C8A0AE0000EE104AB8EEC00A03F0CF
:1020600015F840B100F020FB5F480068401C5E4955
:102070000860012070BD0020FCE700EE104AB8EEB9
:10208000C00A02F033FF40B100F00EFB5648006872
:10209000401C554908600120ECE70020EAE70120D8
:1020A000524908605248046052480068A04208D172
:1020B00000F0FAFA4C480068401C4B4908600120C7
:1020C000D8E70020D6E702F0E5FE58B14A4800689C
:1020D00040B100F0E9FA44480068401C42490860F9
:1020E0000120C7E70020C5E7204601F091FB40B181
:1020F00000F0DAFA3C480068401C3B4908600120C7
:10210000B8E70020B6E7204601F086FB40B100F0BA
:10211000CBFA35480068401C334908600120A9E724
:102120000020A7E75BE058E000EE104AB8EEC00AD6
:1021300003F006F940B100F0B7FA2B480068401CE4
:1021400029490860012095E7002093E72B4890ED8E
:10215000000AF8EEC01A90ED000AB8EEC01A00EEC0
:10216000104AF8EEC00A00EE104AB8EEC00A01F0BC
:102170000DFC40B100F098FA1B480068401C1A4959
:102180000860012076E7002074E703F0D7F840B13B
:1021900000F08AFA14480068401C134908600120C6
:1021A00068E7002066E7164890ED000AF7EE000A9F
:1021B000B4EE600AF1EE10FA0DD100F075FA0A489B
:1021C0000068401C084908609FED0E0A0C4880ED2D
:1021D000000A01204EE700204CE700204AE70020DB
:1021E00048E70000040000200000002090000020CC
:1021F000940000208C0000200C000020240000200F
:102200005000002000000000F0B50A460021002325
:10221000002400BF3DE0012505FA01F3156805EA39
:1022200003049C4234D105684F000326BE40B543E9
:10223000056015794E00B54006683543056015798F
:10224000012D02D01579022D16D185684F00032685
:10225000BE40B543856055794E00B540866835432C
:102260008560456801268E40B5434560456896798E
:102270008E40B6B235434560C5684F000326BE4068
:10228000B543C560D5794E00B540C6683543C560D5
:10229000491C1029BFD3F0BDF0B5002300244D0721
:1022A000ED0E02FA05F3CE1000F1200555F8265088
:1022B0004E07F70E0F26BE40B543CF1000F12006A3
:1022C00046F82750CE1000F1200555F8265045EA73
:1022D0000304CE1000F1200545F82640F0BD0000B3
:1022E0001CB50121022000F03BF902208DF8050009
:1022F0000002009000208DF8040002208DF80700F5
:1023000069460248FFF780FF1CBD00000004024040
:1023100000BFFEE71CB50121042000F021F94FF4B5
:102320000050009001208DF8040000208DF8060078
:1023300003208DF8050001208DF807006946034849
:10234000FFF762FF0020024908601CBD0008024040
:10235000B402414210B58AB00446012038490860F1
:102360000121022000F0FCF802208DF8240000205A
:102370008DF826003320089000208DF827000320D8
:102380008DF8250008A92F48FFF73EFF02220421FF
:102390002C48FFF781FF022205212A48FFF77CFF26
:1023A000022200212748FFF777FF0222012125485A
:1023B000FFF772FF0121022000F0E2F80020ADF8E3
:1023C0001C00ADF816004FF4D27090FBF4F0401EE4
:1023D00080B2ADF8140000208DF81E006320069036
:1023E00005A9194800F030FE6020ADF8000001207A
:1023F000ADF802000420ADF804000020ADF80C0098
:10240000ADF80E004FF48070ADF810000020ADF86C
:10241000120069460C4800F0C7FC69460A4800F003
:1024200001FD6946084800F04FFD6946064800F086
:102430009BFD0121044800F02FFC0AB010BD0000F4
:1024400098000020000402400004004000BFFEE7A6
:102450007047000070B5002100230F22C4781CB320
:10246000174C246804F4E064C4F5E064C4F3072165
:10247000C1F10404E3B20A4144789C40E1B284789B
:10248000144021430C07210E0E4C05786155047849
:1024900004F01F050124AC4005786D11AD0005F175
:1024A000E025C5F8004109E0047804F01F05012487
:1024B000AC40054D0678761145F8264070BD000009
:1024C0000CED00E000E400E080E100E010B507481A
:1024D000006810B901F0E6FA01E002F0D1FAFFF766
:1024E00085FC4FF0FF300249086010BD0800002055
:1024F0000400002070B50024052514480068012858
:102500001CD1002608E012480068012800D1641C94
:10251000642001F03BF9761CAE42F4DB0D48006804
:10252000012803D1AC4201D10B4908600948006879
:1025300050B94CB900200849086005E0034800681C
:1025400010B902200449086070BD0000900000200E
:1025500024824042940000208C000020704700003C
:1025600029B1064A12680243044B1A6004E0034A88
:1025700012688243014B1A607047000030380240F5
:1025800029B1064A12680243044B1A6004E0034A68
:1025900012688243014B1A607047000040380240C5
:1025A00029B1064A12680243044B1A6004E0034A48
:1025B00012688243014B1A607047000044380240A1
:1025C000F0B5002100220024022500260223324F0C
:1025D0003F6807F00C0121B1042905D0082937D143
:1025E00005E02E4F076036E02D4F076033E02A4F9D
:1025F0003F1F3F68C7F38056274F3F1F3F6807F0D4
:102600003F036EB1264FB7FBF3F7DFF88CC0ACF198
:10261000040CDCF800C0CCF3881C07FB0CF40CE0C5
:102620001E4FB7FBF3F7DFF870C0ACF1040CDCF819
:1026300000C0CCF3881C07FB0CF4174F3F1F3F680A
:10264000C7F301477F1C7D00B4FBF5F7076002E08C
:10265000124F076000BF00BF0F4F3F6807F0F00147
:102660000909104F7A5C0768D74047600A4F3F68F6
:1026700007F4E051890A0B4F7A5C4768D7408760BE
:10268000054F3F6807F46041490B064F7A5C476885
:10269000D740C760F0BD0000083802400024F400B5
:1026A00040787D012C00002010B500200F49086003
:1026B00002200F4908600F49086020210E48FDF7ED
:1026C0006EFE20210D48FDF76AFE20210C48FDF723
:1026D00066FE01200B49086001F0D6F901F0C2FF47
:1026E00002F00AFE02F086FE10BD000090000020FD
:1026F0008C000020940000209C000020D4000020CA
:10270000F4000020100000201CB501210220FFF77A
:1027100027FF40F20440009001208DF804000020C3
:102720008DF8060003208DF8050001208DF80700C4
:1027300069460548FFF768FD01200449086000204C
:102740000349C1F888021CBD00040240A88240422F
:10275000008040425048006847F23051081A4F4903
:102760008860084680684042886047F230504A4995
:1027700008604A48406849498968084447494860B0
:10278000084690ED020AB8EEC00A4548D0ED010AAD
:1027900080EE201A9FED430A21EE000ADFED420A87
:1027A00020EE200AD0ED000A60EE200A808900EEBB
:1027B000100AB8EE400A80EE801A084680ED091A29
:1027C000374890ED000ADFED390A60EE200A08462E
:1027D00090ED010AB8EEC00A20EE800A3048D0ED34
:1027E000010A80EE201A084680ED0A1A4FF0804058
:1027F000406A47F23051081A284948610846406942
:10280000486147F230504FF08041486223480069E8
:1028100022494969084421490861214890ED000A8C
:10282000DFED220A60EE200A084690ED040AB8EEB9
:10283000C00A20EE800A1A48D0ED020A80EE201A63
:10284000084690ED0D0A71EE400A1548808900EEA9
:10285000100AB8EE400A80EE801A9FED120A21EEAF
:10286000000A084680ED0C0A0D4890ED000ADFEDE5
:102870000F0A60EE200A084690ED040AB8EEC00A7E
:1028800020EE800A0648D0ED020A80EE201A0846A3
:1028900080ED0D1A704700002408004088040020D5
:1028A000C80400200000FA44DA0F4940DA0FC9409A
:1028B000704700000CB5002001900090334800687C
:1028C00040F480303149086000BF3048006800F4AF
:1028D000003000900198401C0190009818B90198B0
:1028E000B0F5A04FF1D12948006800F4003010B1D4
:1028F0000120009001E0002000900098012844D1C0
:1029000022484030006840F0805020494031086043
:102910001F48006840F440401D4908601B480830CB
:1029200000681A49083108600846006808600846CF
:10293000006840F4805008601648091F0860081FAE
:10294000006840F08070091F086000BF0F480068F1
:1029500000F000700028F9D040F202700E490860C3
:102960000A480830006820F0030008490831086070
:102970000846006840F00200086000BF03480830C5
:10298000006800F00C000828F8D10CBD00380240A7
:102990000070004010544107003C0240042808D158
:1029A0004FF0E021096941F004014FF0E02211618C
:1029B00007E04FF0E021096921F004014FF0E02227
:1029C000116170477047000010B51548006840F469
:1029D0007000134908601348006840F00100114975
:1029E000086000200F49083108600E4800680E4951
:1029F00008400C4908600D48091D0860081F006860
:102A000020F48020091F0860002006490C3108606E
:102A1000FFF750FF4FF0006001498039086010BD9A
:102A200088ED00E000380240FFFFF6FE1030002481
:102A3000F0B50C46154600210022068C4FF6FE77B5
:102A40003E400684018B028C4FF60C7631407E1C92
:102A500006EA03162E4331434FF6F576324044F032
:102A60000106324301830284F0BDF0B50C461546E1
:102A7000002100220026078C4FF6EF7C07EA0C07A6
:102A80000784018B028C4FF6FF7707EA041640F6A5
:102A9000FF4739404FF6FF7707EA033739434FF6D0
:102AA000FF7707EA052739434FF65F773A4046F04C
:102AB00010073A4301830284F0BDF0B50C46154679
:102AC000002100220026078C4FF6FF6C07EA0C0756
:102AD0000784818B028C4FF6FF7707EA04264FF6B6
:102AE0000C7739404FF6FF7707EA03172F43394336
:102AF0004FF2FF573A4046F480773A43818302848D
:102B0000F0BDF0B50C461546002100220026078CCA
:102B10004EF6FF7C07EA0C070784818B028C4FF688
:102B2000FF7707EA043640F6FF4739404FF6FF7754
:102B300007EA052739434FF6FF7707EA033739439A
:102B400045F6FF773A4046F480573A438183028442
:102B5000F0BD10B5FFF7BAFC10BD00001FB504466C
:102B600001214804FFF71CFD04EB84000121C1EBA7
:102B70004000029042F2CF00ADF804000020ADF812
:102B80000C00ADF8060001A90C4800F05DFA012226
:102B900011460A4800F0FEF819208DF800000120C7
:102BA0008DF801008DF802008DF803006846FFF7EC
:102BB00051FC0121014800F06FF81FBD00440140A5
:102BC0007047000010B50121054800F092F828B1C7
:102BD0000121034800F05DF8FFF7BCFD10BD0000C7
:102BE0000040014010B50121054800F082F828B1ED
:102BF0000121034800F04DF8FFF7E2FF10BD00008F
:102C00000048014010B50121054800F072F828B1D4
:102C10000121034800F03DF8FFF79BFF10BD0000C5
:102C2000004401401FB5044601210804FFF7B8FC29
:102C300004EB84000121C1EB4000029042F2CF007E
:102C4000ADF804000020ADF80C00ADF8060001A9B5
:102C50000D4800F0F9F9012211460B4800F09AF8EE
:102C600018208DF8000001208DF8010003208DF858
:102C7000020001208DF803006846FFF7EBFB0121FD
:102C8000014800F009F81FBD00400140CA4302821C
:102C90007047CA430282704721B1028842F00102A4
:102CA000028004E002884FF6FE731A4002807047EB
:102CB000F0B50C4615461E4600210022002301896E
:102CC000028B038C4FF6F877394021434FF6FC47CF
:102CD0003A4040F201173A434FF6DD773B404FF65A
:102CE000FF7707EA06172F433B43018102830384E2
:102CF000F0BD30B50246002000230024158A05EA05
:102D00000103958905EA010413B10CB1012000E02B
:102D1000002030BD70B505460C46208850B9238987
:102D2000A28861882846FFF783FEE188284600F0E4
:102D30005FF925E0208804280AD12389A2886188C8
:102D40002846FFF792FEE188284600F05AF917E07E
:102D5000208808280AD12389A28861882846FFF79D
:102D6000ACFEE188284600F059F909E02389A288E1
:102D700061882846FFF7C5FEE188284600F057F92C
:102D800070BD002101804180012181800021C1802E
:102D9000018170471AB183890B43838102E08389E3
:102DA0008B4383817047000070B50024002200230C
:102DB000058C4FF6FE7635400584028C8388048BA3
:102DC0004FF68F752C40B51E2C400D882C43751E78
:102DD0002A408D892A434D882A43104DA84202D0AB
:102DE0000F4DA84213D14FF6F7752A40CD892A43DB
:102DF0004FF6FB752A408D882A434FF6FF652B401E
:102E00004FF6FF552B400D8A2B434D8A2B43838071
:102E100004838D684563028470BD0000000001409A
:102E20000004014070B5002400220023058C4FF6F9
:102E3000EF7635400584028C8388048B48F6FF7555
:102E40002C404FF6FF452C400D884FF6FF7606EAE2
:102E500005252C434FF6DF752A408D8906EA0515B6
:102E60002A434D8806EA05152A43154DA84202D08B
:102E7000144DA8421DD14FF67F752A40CD894FF6DB
:102E8000FF7606EA05152A434FF6BF752A408D885E
:102E900006EA05152A434FF6FF352B404FF2FF7522
:102EA0002B400D8A06EA85052B434D8A06EA8505E7
:102EB0002B43838004838D688563028470BD00008A
:102EC000000001400004014070B5002400220023EE
:102ED000058C4FF6FF6635400584028C8388848B11
:102EE0004FF68F752C404FF6FC752C400D882C4307
:102EF0004FF6FF552A408D894FF6FF7606EA0525E5
:102F00002A434D8806EA05252A43154DA84202D0DA
:102F1000144DA8421DD14FF2FF752A40CD894FF6BE
:102F2000FF7606EA05252A434FF6FF352A408D88AD
:102F300006EA05252A434EF6FF752B404DF6FF7530
:102F40002B400D8A06EA05152B434D8A06EA051526
:102F50002B43838084838D68C563028470BD000029
:102F6000000001400004014070B50022002300244D
:102F7000058C4EF6FF7635400584038C8488828B61
:102F800048F6FF752A404FF6FF452A400D884FF658
:102F9000FF7606EA05252A434DF6FF752B408D89FD
:102FA00006EA05352B434D8806EA05352B430A4DC5
:102FB000A84202D0094DA84208D14BF6FF752C401B
:102FC0000D8A4FF6FF7606EA85152C4384808283AE
:102FD0008D680564038470BD000001400004014059
:102FE0004163704781637047C163704701647047F4
:102FF000028B4FF6F3731A400283028B0A4302835B
:103000007047028B4FF2FF331A400283028B4FF658
:10301000FF7303EA01231A4302837047828B4FF642
:10302000F3731A408283828B0A4382837047828BB8
:103030004FF2FF331A408283828B4FF6FF7303EA0D
:1030400001231A438283704700220288184B98425A
:103050000ED0184B98420BD0B0F1804F08D0164BD1
:10306000984205D0154B984202D0154B984204D196
:103070004FF68F731A404B881A43124B984207D071
:10308000114B984204D04FF6FF431A400B891A4364
:1030900002804B68C3620B880385054B984202D0BF
:1030A000044B984201D18B7A0386012383827047B7
:1030B00000000140000401400004004000080040FE
:1030C000000C0040001000400014004010B540F219
:1030D0002551144800F024F918B3124800F0DAF929
:1030E000C4B25B2C02D101200F4908600E48006871
:1030F000012807D10D4801880088401C0B4A108028
:103100000B4844540848006801280AD15D2C08D1B6
:103110000849074801F076FC00200349086003498C
:10312000088010BD001001404C0000205800002015
:10313000A60300205000002010B54D480068401C38
:103140004B490860084600680A2808DD49480068BD
:10315000C0434949C1F8B40200204549086040F223
:103160002551464800F0DCF800287DD0434800F0A7
:1031700091F9C4B2262C02D101204149086040488F
:103180000068012807D13F4801880088401C3D4A5B
:1031900010803D4844543A480068012867D12A2CE1
:1031A00065D10323374802883849374801F0E0FBEE
:1031B00000203349086033490880344890ED000A04
:1031C000BDEEC00A324880ED000A00680A2190FB7B
:1031D000F1F201FB12002F4908602D4800680968D0
:1031E000401A0A2190FBF1F029490860084600685E
:1031F0000A2190FBF1F201FB1200274908602448E4
:1032000000680968401A0A2190FBF1F02049086023
:10321000084600680A2190FBF1F201FB12001F49E9
:1032200008601B4800680968401A0A2190FBF1F009
:1032300017490860084600680A2190FBF1F201FB7B
:10324000120017490860124800680968401A0A21EC
:1032500090FBF1F00E490860084600680A2190FBD7
:10326000F1F201FB120000E001E00E49086010BD20
:1032700064000020B402414200004142004400408A
:10328000600000205C000020D80300200C04002017
:103290007C000020780000207400002070000020D6
:1032A0006C0000206800002010B5124800F0F2F811
:1032B000C4B2642C02D101200F4908600E48006896
:1032C000012807D10D4801880088401C0B4A108056
:1032D0000B4844540848006801280AD16D2C08D1D5
:1032E0000849074800F0E1F8002003490860034955
:1032F000088010BD001401408400002080000020E0
:10330000180400207C04002021B1828942F400527C
:10331000828104E082894DF6FF731A4082817047F2
:1033200070B50246002400230025002040F66A16EE
:10333000B14200D100BFC1F3421501F01F030126C5
:1033400006FA03F3012D02D19689334006E0022DDF
:1033500002D1168A334001E0968A33400C120126CE
:1033600006FA04F41688344013B10CB1012000E0D1
:10337000002070BDF0B50346002400260025002083
:1033800040F66A17B94200D100BF1846C1F3421493
:1033900001F01F06012707FA06F5012C01D10C30B8
:1033A00004E0022C01D1103000E014301AB107689B
:1033B0002F43076002E00768AF430760F0BD0000DD
:1033C0002DE9FF4705460E460024A14600BFA04652
:1033D000B08900B100BF2C8A24F44054F088044323
:1033E0002C82AC8941F20C608443B0883189084357
:1033F000718908430443AC81AC8A24F44074B089D9
:103400000443AC826846FFF7DBF82048854202D0CF
:103410001F48854202D1DDF80C9001E0DDF80890EC
:10342000A88900F4004040B109EBC90000EB091085
:1034300031684900B0FBF1F707E009EBC90000EB88
:10344000091031688900B0FBF1F76420B7FBF0F098
:1034500004012009642101FB1078A88900F40040D0
:1034600040B1322000EBC800B0FBF1F000F00700E3
:10347000044308E0322000EB08106421B0FBF1F0B7
:1034800000F00F0004432C81BDE8FF8700100140CD
:103490000014014001468888C0F308007047C1F35A
:1034A00008028280704700BFFEE770B52DED028BE9
:1034B00086B004460D46002600200AE0215C302933
:1034C00006DB215C392903DC215C01AA9155761CBD
:1034D000401C215C6D29F1D101A800F025F8B0EE67
:1034E000408AF0EE608A51EC180B01F0BDFF2860B5
:1034F00006B0BDEC028B70BD03B40198410000988A
:1035000050EAC12018BF04204A0D18BF40F0010046
:1035100040F2FF72B2EB515F08BF40F00200012899
:1035200008BF052002B0704730B583B00446FCF7F1
:1035300061FF9FED090B05468DED000B0022214632
:103540006846FDF7D3F92846FCF759FF9DED000BBF
:1035500003B030BD000000000000000000000000CB
:1035600030B540F2FF742DED048BF0EE608A18EE5A
:10357000901A85B0B0EE408A9FED2B9B05468DEDED
:10358000008B34EA115147D053EC192B51EC180B36
:1035900001F0B0FF40D02A4651EC180B02F005FABA
:1035A00041EC180B18EE900A8DED008B34EA1050A8
:1035B0001CD053EC192B51EC180B01F09BFF2BD1B5
:1035C0000220FCF71CFF00F043F810EE901A18EEF2
:1035D000900A8DED020B8DED008B61F31E000390C0
:1035E0009DED020B05B0BDEC048B30BD0220FCF755
:1035F00006FF00F01DF810EE901A18EE900A8DEDFF
:10360000020B8DED008B61F31E0003909DED020B0C
:1036100005B0BDEC048B30BD05B0B0EE480AF0EE4D
:10362000680ABDEC048B30BD000000000000000003
:103630009FED050B10B553EC102B51EC100B01F066
:10364000D1FF41EC100B10BD000000000000007025
:103650009FED050B10B553EC102B51EC100B01F046
:10366000C1FF41EC100B10BD000000000000001075
:1036700030B504462DED048B81B06A4691ED008B88
:1036800051EC180B00F03CF900989FED239B7E3025
:103690000090002821DC53EC192B51EC180B01F0A1
:1036A00029FF1AD0002140F608004FF0000005461F
:1036B00051EC180B01F0D8FE08EE100A40F6080095
:1036C00005EA00014FF00000B5EEC08AF1EE10FAF5
:1036D00004BF0220FCF793FE17E00098FF280EDBE2
:1036E0000220FCF78CFE53EC192B51EC180B02F066
:1036F00077F88CBF9FED0A8A9FED0A8A05E051ECAE
:10370000180B01F0B1FE08EE100A84ED008A01B03A
:10371000BDEC048B30BD0000000000000000000084
:10372000000080FF0000807F10B5044690ED000B84
:103730000846FFF715FF84ED000B10BD30380A284E
:1037400001D2012070470020704700BF7047000081
:1037500010B504466FF00400FFF720F9E11704EB01
:103760005171C1F3C701074A11701046007800EB90
:103770004001C1EBC0104FF6FF7101EAC0000249E1
:10378000088010BD3C0000203E00002070B50446BB
:103790004FF4077094FBF0F0C6B24FF4077094FB3F
:1037A000F0F100FB114085B205E04FF4077000F026
:1037B00009F8701EC6B2002EF7D115B1284600F0E8
:1037C00001F870BD0146114A12884A434FF0E023C8
:1037D0005A6100229A611A46126942F001021A6186
:1037E00000BF4FF0E022106900F001021AB100F4AE
:1037F0008032002AF5D04FF0E022126922F0010257
:103800004FF0E0231A6100229A6170473E000020C9
:10381000014601207047000070B504461B4800684F
:10382000022805D11A48006810B11A48006808B982
:10383000002070BD16480068461E16480068451EE8
:10384000154850F82600401C134941F8260013483B
:1038500050F82500401C114941F825000E4801F0A0
:103860000DFB502810DD0C4800F018FD401C611EB7
:103870000B4A42F82100094800F010FD401C08499D
:1038800041F824000120D4E70020D2E77000002096
:10389000680000206C000020D4000020F40000200C
:1038A000BC00002070B504460D4611480068012890
:1038B00002D0022818D10BE0E1B20E48FFF7EFFD6D
:1038C00000BF0C48008800F080000028F9D00BE011
:1038D000E1B20948FFF7E3FD00BF0748008800F0A8
:1038E00080000028F9D000BF00BF204670BD000056
:1038F0004000002000100140004400400000000093
:1039000010B582B01446CDE900010023009A23606F
:10391000194B21F0004098422ADA024328D0B0F532
:10392000801FA8BF226810DA9FED150B53EC102BF7
:103930009DED000B51EC100B01F054FECDE90001A0
:103940006FF0350221F0004022600F4B6FF31E51E3
:1039500003EB20501044206041F0FF5040F0005035
:1039600001909DED000B00BF02B051EC100B10BD9B
:103970009DED000BF8E700000000F07F0000000064
:10398000000000000000504302FCFFFF10B52DEDC9
:10399000048BB0EE408AF0EE609AF0EE418AB0EE11
:1039A000619A9FED350A354880ED000AC0ED0C8A1A
:1039B000B1EE680A80ED0D0A80ED088A304890ED7E
:1039C0000A0A2E4880ED090A9FED2B0A2D4880ED4A
:1039D000000A80ED0C9AB1EE490A80ED0D0AC0EDA7
:1039E000089A274890ED0D0A264880ED090AB5EEA1
:1039F000C08AF1EE10FA04DDB2EE000A28EE000AE9
:103A000005E0B1EE480AF2EE000A20EE200ABDEE13
:103A1000C00A1A4880ED100AB5EEC08AF1EE10FA1D
:103A200004DDB2EE000A28EE000A05E0B1EE480A15
:103A3000F2EE000A20EE200ABDEEC00A114880ED29
:103A4000100A0E4800F01CFE0E4800F019FE0D484A
:103A500090ED0B1AF0EE410A084890ED0B1AB0EE0B
:103A6000410A00F06FFD0548806B0649896B0840EC
:103A7000BDEC048B10BD00003333333FAC0100209C
:103A800088040020F801002010B500F0EBFD034889
:103A900000F004FE024800F001FE10BDAC01002061
:103AA000F801002010B500210320FEF7BDFA10B187
:103AB0000020FE49086001210220FEF7B5FAFC480B
:103AC0000068012855D102210020FEF7ADFA00213F
:103AD0000620FEF7A9FA6FF059010120FEF7A4FABB
:103AE00000210620FEF7A0FA03210020FEF79CFA31
:103AF00028B10120ED4920390860EE490860002115
:103B00000620FEF791FA00210220FEF78DFA18B187
:103B10000020E64920390860B4210120FEF784FA2C
:103B200000210620FEF780FA02210020FEF77CFA31
:103B300000210620FEF778FA5A210120FEF774FAD8
:103B400000210620FEF770FA03210020FEF76CFA30
:103B500010B10120D549086000210620FEF764FA63
:103B6000B4210120FEF760FA00210620FEF75CFA7E
:103B700054E3CF480068022855D102210020FEF707
:103B800053FA00210620FEF74FFA5A210120FEF7D2
:103B90004BFA00210620FEF747FA03210020FEF72A
:103BA00043FA28B10120C14920390860C1490860A1
:103BB00000210620FEF738FA00210220FEF734FA31
:103BC00018B10020B94920390860B4210120FEF75E
:103BD0002BFA00210620FEF727FA02210020FEF72B
:103BE00023FA00210620FEF71FFA6FF05901012089
:103BF000FEF71AFA00210620FEF716FA032100202C
:103C0000FEF712FA10B10120A84908600021062031
:103C1000FEF70AFAB4210120FEF706FA0021062079
:103C2000FEF702FAFAE204210020FEF7FDF9002176
:103C30000620FEF7F9F905210020FEF7F5F900212D
:103C40000620FEF7F1F901210520FEF7EDF99A486B
:103C500000689749096888425DD102210020FEF77B
:103C6000E3F900210620FEF7DFF96FF0590101208A
:103C7000FEF7DAF900210620FEF7D6F9032100202D
:103C8000FEF7D2F928B10120884920390860894916
:103C9000086000210620FEF7C7F900210220FEF788
:103CA000C3F938B10020814920390860B7EE000A15
:103CB00000F004FEB4210120FEF7B6F90021062031
:103CC000FEF7B2F902210020FEF7AEF9002106202E
:103CD000FEF7AAF95A210120FEF7A6F900210620D5
:103CE000FEF7A2F903210020FEF79EF930B1012072
:103CF0006E490860B7EE000A00F0E0FD00210620E2
:103D0000FEF792F9B4210120FEF78EF9002106207A
:103D1000FEF78AF982E26848406865490968884286
:103D20005DD102210020FEF77FF900210620FEF779
:103D30007BF95A210120FEF777F900210620FEF7D2
:103D400073F903210020FEF76FF928B101205749CC
:103D5000203908605749086000210620FEF764F901
:103D600000210220FEF760F938B100204F492039C8
:103D70000860B7EE000A00F0A1FDB4210120FEF7B3
:103D800053F900210620FEF74FF902210020FEF72B
:103D90004BF900210620FEF747F96FF05901012089
:103DA000FEF742F900210620FEF73EF9032100202C
:103DB000FEF73AF930B101203C490860B7EE000A3D
:103DC00000F07CFD00210620FEF72EF9B421012031
:103DD000FEF72AF900210620FEF726F91EE2062149
:103DE0000020FEF721F96FF059010120FEF71CF9C0
:103DF00000210620FEF718F901210020FEF714F932
:103E000000210620FEF710F905210020FEF70CF92D
:103E100000210620FEF708F903210520FEF704F92A
:103E20002548806822490968884277D1022100200C
:103E3000FEF7FAF800210620FEF7F6F86FF05901B8
:103E40000120FEF7F1F800210620FEF7EDF803212E
:103E50000020FEF7E9F828B1012014492039086054
:103E60001449086000210620FEF7DEF80021022038
:103E7000FEF7DAF838B100200C4920390860B7EEB7
:103E8000000A00F01BFDB4210120FEF7CDF800214F
:103E90000620FEF7C9F802210020FEF7C5F8002130
:103EA0000620FEF7C1F85A21012007E0A88240420F
:103EB0000C00002044000020BC000020FEF7B4F8F5
:103EC00000210620FEF7B0F802210020FEF7ACF832
:103ED00000210620FEF7A8F85A210120FEF7A4F8D9
:103EE00000210620FEF7A0F803210020FEF79CF831
:103EF00030B10120CA490860B7EE000A00F0DEFCCC
:103F000000210620FEF790F8B4210120FEF78CF87E
:103F100000210620FEF788F880E1FFE7C148C0686D
:103F2000C149096888426DD102210020FEF77CF862
:103F300000210620FEF778F85A210120FEF774F8D8
:103F400000210620FEF770F803210020FEF76CF830
:103F500028B10120B24920390860B4490860002125
:103F60000620FEF761F800210220FEF75DF838B167
:103F70000020AB4920390860B7EE000A00F09EFC33
:103F8000B4210120FEF750F800210620FEF74CF87E
:103F900002210020FEF748F800210620FEF744F831
:103FA0006FF059010120FEF73FF800210620FEF7CF
:103FB0003BF802210020FEF737F800210620FEF72B
:103FC00033F85A210120FEF72FF800210620FEF7D2
:103FD0002BF803210020FEF727F830B1012090498B
:103FE0000860B7EE000A00F069FC00210620FEF729
:103FF0001BF8B4210120FEF717F800210620FEF778
:1040000013F80BE1B4210120FEF70EF80021062081
:10401000FEF70AF802210020FEF706F8002106202C
:10402000FEF702F801210020FDF7FEFF0021062027
:10403000FDF7FAFF05210020FDF7F6FF002106201D
:10404000FDF7F2FF05210846FDF7EEFF7548006910
:104050007549096888426DD102210020FDF7E4FF0F
:1040600000210620FDF7E0FF6FF059010120FDF768
:10407000DBFF00210620FDF7D7FF03210020FDF71D
:10408000D3FF28B1012066492039086067490860DC
:1040900000210620FDF7C8FF00210220FDF7C4FF24
:1040A00038B100205E4920390860B7EE000A00F000
:1040B00005FCB4210120FDF7B7FF00210620FDF724
:1040C000B3FF02210020FDF7AFFF00210620FDF71E
:1040D000ABFF5A210120FDF7A7FF00210620FDF7C5
:1040E000A3FF02210020FDF79FFF00210620FDF71E
:1040F0009BFF5A210120FDF797FF00210620FDF7C5
:1041000093FF03210020FDF78FFF30B101204449C8
:104110000860B7EE000A00F0D1FB00210620FDF791
:1041200083FFB4210120FDF77FFF00210620FDF76A
:104130007BFF73E03B4840693B49096888426DD189
:1041400002210020FDF770FF00210620FDF76CFF23
:104150005A210120FDF768FF00210620FDF764FFCA
:1041600003210020FDF760FF28B101202C492039F0
:1041700008602E49086000210620FDF755FF002148
:104180000220FDF751FF38B1002025492039086091
:10419000B7EE000A00F092FBB4210120FDF744FFC6
:1041A00000210620FDF740FF02210020FDF73CFF23
:1041B00000210620FDF738FF6FF059010120FDF7BF
:1041C00033FF00210620FDF72FFF02210020FDF71D
:1041D0002BFF00210620FDF727FF6FF0590101207A
:1041E000FDF722FF00210620FDF71EFF032100201E
:1041F000FDF71AFF30B1012009490860B7EE000A47
:1042000000F05CFB00210620FDF70EFFB421012029
:10421000FDF70AFF00210620FDF706FF10BD000094
:10422000A8824042BC0000200C0000204400002076
:104230005420FFF78DFA0120FEF78CF84FF416504A
:1042400000F0CCFE4FF4165000F072FEFEF75CFA60
:10425000FEF760F8FEF744F80F20FDF76BFE142020
:10426000FEF77CFC11E00A2008490860002008499C
:104270000860FEF73FF907480068C0430649C1F8E7
:10428000B4024FF4FA70FFF781FAECE72400002043
:1042900008000020B40241420000414210B501462E
:1042A0000A680023012007E051F82040944202DD13
:1042B00051F820200346401C0828F5DB184610BDA5
:1042C00010B52DED028BB0EE408ABCEEC80A10EEA0
:1042D000101A0348FEF784FEBDEC028B10BD0000EF
:1042E0000004004010B52DED028BB0EE408ABCEE0C
:1042F000C80A10EE101A0348FEF774FEBDEC028BDC
:1043000010BD00000004004010B52DED028BB0EE92
:10431000408ABCEEC80A10EE101A0348FEF764FE8D
:10432000BDEC028B10BD00000004004010B52DED67
:10433000028BB0EE408ABCEEC80A10EE101A034899
:10434000FEF754FEBDEC028B10BD000000040040DF
:1043500010B52DED028BB0EE408AF0EE608AB5EE1E
:10436000C08AF1EE10FA07DD78EE280AB0EE600A96
:10437000012000F02DF808E0F1EE480A70EEA80ADE
:10438000B0EE600A002000F023F8BDEC028B10BDF7
:1043900010B52DED028BB0EE408AF0EE608AB5EEDE
:1043A000C08AF1EE10FA07DD78EE280AB0EE600A56
:1043B000012000F049F808E0F1EE480A70EEA80A82
:1043C000B0EE600A002000F03FF8BDEC028B10BD9B
:1043D00010B52DED028B0446B0EE408A17480068F8
:1043E000012812D144B9B7EE000AFFF769FFB0EE19
:1043F000480AFFF777FF1DE0B0EE480AFFF760FFBD
:10440000B7EE000AFFF76EFF14E0012C07D1012080
:104410000B49086000200B49C1F8840206E0002027
:104420000749086001200749C1F88402B0EE480A34
:10443000FFF746FFBDEC028B10BD00009800002086
:10444000808240420080404210B52DED028B044630
:10445000B0EE408A17480068012812D144B9B0EE86
:10446000480AFFF751FFB7EE000AFFF75FFF1DE0B4
:10447000B7EE000AFFF748FFB0EE480AFFF756FF15
:1044800014E0012C07D101200B49086000200B49E2
:10449000C1F8A80206E0002007490860012007498A
:1044A000C1F8A802B0EE480AFFF71CFFBDEC028B72
:1044B00010BD0000980000208882404200804042E9
:1044C0001C480068012828D11B4800681A49091DAA
:1044D0000968884205D9012017490860091D08604C
:1044E00005E001201449091D0860091F08601248F1
:1044F0000830006810490C310968884206D901204B
:104500000D4908310860091D086012E001200A49C0
:104510000C310860091F08600BE0002007490860A3
:104520000749C1F884020549083108600449C1F807
:10453000A802704798000020340400408082404266
:104540000080404210B52DED028BB0EE408AF0EEB7
:10455000608AB7EE080A3B4880ED000AB6EE000A12
:1045600080ED010A9FED380A80ED020A374890ED90
:10457000000ADFED370A30EEC00A324880ED0C0A3F
:10458000324890ED000ADFED330A30EE200A2D4864
:1045900080ED0D0A80ED088A2F4890ED020AB8EEF2
:1045A000C00A284880ED090AB7EE080A2B4880EDBA
:1045B000000AB6EE000A80ED010A9FED230A80EDA5
:1045C000020A274890ED000ADFED210A30EEC00A0A
:1045D000224880ED0C0A224890ED000ADFED1D0A0A
:1045E00030EE200A1D4880ED0D0AC0ED088A1A48F9
:1045F00090ED050AB8EEC00A184880ED090A114886
:1046000000F03EF8154800F03BF80E48D0ED0B0ADC
:10461000B0EE600A0D48D0ED000AFFF799FE0F4892
:10462000D0ED0B0AB0EE600A0D48D0ED000AFFF79E
:10463000AFFE0448806B0949896B0840BDEC028BD2
:1046400010BD000014010020000000001C0000202C
:104650000000AA420000AAC28804002060010020D5
:104660002000002010B5FDF7F7FB034800F016F816
:10467000024800F013F810BD140100206001002072
:1046800000B5034693ED091AF0EE410A93ED081ABE
:10469000B0EE410A184600F009F800BD10B5044616
:1046A0004C212046FBF77BFE10BD0000014691ED3A
:1046B000121AB8EEC11AD1ED091A21EE211A886C2E
:1046C000C0F1010001EE900AF8EEE11A01EEA01A25
:1046D00081ED091A91ED051A81ED061A91ED041A82
:1046E00081ED051A30EE601A81ED041A91ED031A7E
:1046F000B5EEC01AF1EE10FA07D191ED071AD1ED1F
:10470000041A31EE211A81ED071A91ED031AB5EE64
:10471000C01AF1EE10FA2AD091ED041AD1ED051A63
:1047200031EE611AD1ED001A21EE211AD1ED011AF4
:1047300091ED042A01EE821AD1ED041A91ED052AB9
:10474000F0EE002A42EEC21A91ED062A71EE821AAC
:1047500091ED022A02EE611A81ED0A1A91ED0B1A0F
:10476000D1ED0A1A31EE211A81ED0B1A17E091ED05
:10477000001AD1ED041A21EE211AD1ED011A91EDA2
:10478000072A01EE821AD1ED041A91ED052A71EE85
:10479000C21A91ED022A02EE611A81ED0B1A91ED17
:1047A0000C1AB5EEC01AF1EE10FA06D191ED0D1A01
:1047B000B5EEC01AF1EE10FA19D091ED0B1AD1ED49
:1047C0000C1AB4EEE11AF1EE10FA03DD91ED0C1AB9
:1047D00081ED0B1A91ED0B1AD1ED0D1AB4EEE11A21
:1047E000F1EE10FA03D291ED0D1A81ED0B1A91ED55
:1047F000041AD1ED051A31EE611AB5EEC01AF1EEC8
:1048000010FA06DD91ED041AD1ED051A31EE611AA8
:1048100007E091ED041AB1EE411AD1ED051A31EE1F
:10482000611ADFED1C1AB4EEE11AF1EE10FA1DD296
:1048300091ED041AB5EEC01AF1EE10FA02DD91ED19
:10484000041A03E091ED041AB1EE411AF6EE001AD3
:10485000B4EEE11AF1EE10FA08D2C86B401CC8633E
:10486000C86B1E2805DD0120886302E00020C863B4
:104870008863086C10B94FF4E1700864D1E9102026
:10488000904201DD01208863486C401C4864886BBD
:10489000704700006F12833A70B504460D462946F2
:1048A000204600F01BF80646314602A0FBF7FAFC52
:1048B00070BD000025730D0A0000000000B52DED4D
:1048C000028B81B0B0EE408A8DED008A01216846EE
:1048D000FFF7E2FF01B0BDEC028B00BD2DE9F04314
:1048E0002DED028B85B007468846C146002500267F
:1048F000012426201C49087026E007EB850090ED76
:10490000000A10EE101A084600F0A0FF41EC180B48
:1049100053EC182B15A16846FBF7D0FC2120124957
:10492000085505E0641C1DF806000F490855761C63
:104930001DF806000028F5D10026641C21200A4934
:104940000855641C6D1C00BF4D45D6DB2A20064966
:1049500008550021044A601C1154104605B0BDECF6
:10496000028BBDE8F0830000740300202566000080
:104970002DE9F04F2DED028B85B005468946924614
:104980009B4600240026671EA0462EE0285D2628B0
:104990002AD125E0012F06D1285D212803D0285DEA
:1049A0000DF80600761C012F15D1285D212812D1A3
:1049B00000200DF806006846FEF7B6FDB0EE408A0E
:1049C000F0EE608A51EC180B00F04EFD49F828001B
:1049D00008F101080026285D212800D17F42641CCF
:1049E000285D2A28D6D102E0641C5445CEDD00BFE4
:1049F000D84505D0002005B0BDEC028BBDE8F08F96
:104A00000120F8E72DE9F0412DED028B86B0054637
:104A10000F4600240026A0462AE0285D5B2826D108
:104A2000641C20E0285D282806D0285D292803D0B2
:104A3000285D01A98855761C285D292812D10020FF
:104A400001A9885501A8FEF76FFDB0EE408AF0EE8F
:104A5000608A51EC180B00F007FD47F8280008F1B8
:104A600001080026641C285D5D28DBD101E0641C80
:104A7000D3E700BF06B0BDEC028BBDE8F0810000BB
:104A800010B500210320FDF7CFFA01210220FDF728
:104A9000CBFA02210020FDF7C7FA00210620FDF71E
:104AA000C3FA5A210120FDF7BFFA00210620FDF7C5
:104AB000BBFA03210020FDF7B7FA28B10120EA492B
:104AC0000860EA49C1F8880200210620FDF7ACFA27
:104AD00001210A20FDF7A8FA28B10020E249086068
:104AE000E249C1F88802B4210120FDF79DFA0021B6
:104AF0000620FDF799FA01210A20FDF795FA022117
:104B00000020FDF791FA00210620FDF78DFA5A21C9
:104B10000120FDF789FA00210620FDF785FA012121
:104B20000020FDF781FA00210620FDF77DFA05211E
:104B30000020FDF779FA00210620FDF775FA012122
:104B40000520FDF771FACA480068CA490968884219
:104B500052D102210020FDF767FA00210620FDF75F
:104B600063FA6FF059010120FDF75EFA002106207B
:104B7000FDF75AFA03210020FDF756FA10B1012083
:104B8000BD49086000210620FDF74EFA00210220F1
:104B9000FDF74AFA18B10020B34920390860B42162
:104BA0000120FDF741FA00210620FDF73DFA022120
:104BB0000020FDF739FA00210620FDF735FA5A21C9
:104BC0000120FDF731FA00210620FDF72DFA03211F
:104BD0000020FDF729FA10B10120A3490860002147
:104BE0000620FDF721FAB4210120FDF71DFA00216E
:104BF0000620FDF719FA36E19D4840689D4909688D
:104C0000884252D102210020FDF70EFA0021062031
:104C1000FDF70AFA5A210120FDF706FA00210620C5
:104C2000FDF702FA03210020FDF7FEF910B1012083
:104C30009149086000210620FDF7F6F900210220C5
:104C4000FDF7F2F918B10020874920390860B42136
:104C50000120FDF7E9F900210620FDF7E5F9022121
:104C60000020FDF7E1F900210620FDF7DDF96FF0E6
:104C700059010120FDF7D8F900210620FDF7D4F9EC
:104C800003210020FDF7D0F910B10120764908601A
:104C900000210620FDF7C8F9B4210120FDF7C4F971
:104CA00000210620FDF7C0F9DDE006210020FDF718
:104CB000BBF96FF059010120FDF7B6F9002106207C
:104CC000FDF7B2F901210020FDF7AEF90021062021
:104CD000FDF7AAF905210020FDF7A6F9002106201D
:104CE000FDF7A2F903210520FDF79EF960488068D1
:104CF00060490968884220D102210020FDF794F91B
:104D000000210620FDF790F96FF059010120FDF711
:104D10008BF900210620FDF787F903210020FDF71C
:104D200083F928B1012050492039086052490860B0
:104D300000210620FDF778F995E04D48C0684D49FF
:104D4000096888421FD102210020FDF76DF900217A
:104D50000620FDF769F95A210120FDF765F90021C8
:104D60000620FDF761F903210020FDF75DF928B168
:104D700001203D49203908603F4908600021062094
:104D8000FDF752F96FE0B4210120FDF74DF9002144
:104D90000620FDF749F902210020FDF745F9002121
:104DA0000620FDF741F901210020FDF73DF9002122
:104DB0000620FDF739F905210020FDF735F900211E
:104DC0000620FDF731F905210846FDF72DF92848A1
:104DD000006928490968884220D102210020FDF796
:104DE00023F900210620FDF71FF96FF0590101207A
:104DF000FDF71AF900210620FDF716F9032100201E
:104E0000FDF712F928B101201749203908601A4925
:104E1000086000210620FDF707F924E014484069E6
:104E20001449096888421ED102210020FDF7FCF8D0
:104E300000210620FDF7F8F85A210120FDF7F4F8CB
:104E400000210620FDF7F0F803210020FDF7ECF823
:104E500028B1012004492039086007490860002171
:104E60000620FDF7E1F810BDA882404200804042D4
:104E7000BC0000200C0000204400002001460A680D
:104E8000012003E051F820301A44401C0828F9DBC7
:104E90001046704710B511480068012802D110482B
:104EA000006808B9002010BD0D480068441E0D4878
:104EB00050F82400401C0B4941F824000846FFF735
:104EC000DDFF502807DD0748FFF7E8F9401C0649D9
:104ED00008600120E7E70020E5E7000070000020FF
:104EE000680000209C0000200C00002010B52DED73
:104EF000048BB0EE408A9FED0C0AB0EE409ADFEDD5
:104F00000B0A88EE200A20EE090AF0EE408AF2EE43
:104F1000001AB2EE001AF1EE680AB0EE680AFEF767
:104F200035FDBDEC048B10BD00008C410000B44287
:104F300010B588B0044601210846FDF711FB012198
:104F40004804FDF71DFB072202212248FDF7A4F9C2
:104F5000072203211F48FDF79FF90C20069002202D
:104F60008DF81C008DF81D0000208DF81E0001201A
:104F70008DF81F0006A91748FDF746F90294002096
:104F8000ADF80C00ADF80E00ADF81000ADF814004F
:104F90000420ADF8120002A90F48FEF711FA012112
:104FA0000D48FEF7B1F926208DF8040000208DF899
:104FB00005008DF8060001208DF8070001A8FDF717
:104FC00049FA012240F225510348FEF7D3F908B00F
:104FD00010BD0000000002400044004010B588B041
:104FE000044601210846FDF7BBFA01211020FDF718
:104FF000D7FA072209212348FDF74EF907220A2193
:105000002048FDF749F94FF4C060069002208DF862
:105010001C008DF81D0000208DF81E0001208DF869
:105020001F0006A91748FDF7EFF802940020ADF81D
:105030000C00ADF80E00ADF81000ADF814000C2017
:10504000ADF8120002A91048FEF7BAF901210E4886
:10505000FEF75AF9012240F225510B48FEF78AF972
:1050600025208DF8040001208DF8050003208DF81F
:10507000060001208DF8070001A8FDF7EBF908B044
:1050800010BD0000000002400010014010B52DEDE1
:10509000028BB0EE408AB1EE040A8B4880ED000A24
:1050A0008A4890ED000AB8EEC00A874880ED0C0AE5
:1050B00086480068404200EE100AB8EEC00A8248F6
:1050C00080ED0D0A824890ED000AB8EEC00A7E48D5
:1050D00080ED080A7F4890ED010A7B4880ED090ABF
:1050E000FFF7CEFAB0EE040A7B4880ED000A77485D
:1050F00090ED000AB8EEC00A774880ED0C0A7348BC
:105100000068404200EE100AB8EEC00A724880ED16
:105110000D0A6D4890ED0B0A6F4880ED080A6D4846
:1051200090ED020A6C4880ED090AFFF7A9FA6B4876
:105130000068062809DDB7EE000AB4EE408AF1EEF9
:1051400010FA02D101206649086066480068032809
:1051500009DDB0EE000AB4EE408AF1EE10FA02D199
:1051600001205F4908605D48006898B9B0EE080A00
:10517000B4EE408AF1EE10FA0CD15B4890ED0A0AC9
:10518000F3EE0E0AB4EEE00AF1EE10FA02DD0120B1
:105190005349086051480068062813DDB1EE000A43
:1051A000B4EE408AF1EE10FA0CD14F4890ED0A0AA5
:1051B000DFED4E0AB4EEE00AF1EE10FA02DD012056
:1051C0004749086045480068062809DDB1EE040A31
:1051D000B4EE408AF1EE10FA02D101204049086095
:1051E00040480068032813DDB1EE080AB4EE408A97
:1051F000F1EE10FA0CD13C4890ED0A0ADFED3C0AC2
:10520000B4EEE00AF1EE10FA02DD01203449086044
:1052100033480068F0BBB1EE040AB4EE408AF1EE08
:1052200010FA06D1FFEE000ABFEE000AFFF78AF976
:105230003AE0294890ED0B0AB5EEC00AF1EE10FAFB
:1052400010DD90ED0B1A214890ED000AB8EEC00A6F
:1052500031EE000AF0EE400A90ED000AB8EEC00A06
:10526000FFF770F91C4890ED0B0AB5EEC00AF1EE9D
:1052700010FA19D890ED0B1A1448D0ED000AF8EE88
:10528000E00A70EEC10AB0EE600AD0ED000AF8EE56
:10529000E00A00E002E0FFF755F905E0DFED150A4E
:1052A0009FED140AFFF74EF90D480068012809D157
:1052B0000D48806830B90C48406918B90120BDEC30
:1052C000028B10BD0020FAE790020020240000208D
:1052D000180000200C04002044020020740000206C
:1052E0002800002078000020880400200000704280
:1052F000000048420000000010B500200A49086084
:10530000FFF7DEF89FED090A094880ED020A9FEDDC
:10531000070A80ED010AFEF7B7FB0648FFF7BEF962
:105320000548FFF7BBF910BD280000200000000071
:105330000C0400204402002090020020002070474E
:1053400010B52DED028BB0EE408AB0EE000A254874
:1053500080ED000A244890ED000AB8EEC00A21480A
:1053600080ED080A214890ED010A1E4880ED090AE7
:105370001E201C490864BFEE000A1D4880ED000A8B
:10538000194890ED000AB8EEC00A194880ED080AE5
:10539000164890ED020A164880ED090A1E201449AD
:1053A00008641048FFF76CF90E4890ED0B1AF0EE08
:1053B000410A90ED0B1AB1EE411AB0EE410AF1EE3E
:1053C000041AB1EE041AFEF7E1FA0648406C0549EA
:1053D000096C884203DD0120BDEC028B10BD00206A
:1053E000FAE70000DC020020180000200C04002076
:1053F0002803002010B50448FFF750F90348FFF7D1
:105400004DF9FFF779FF10BD28030020DC020020D2
:1054100010B500290AD00878002807D0054878443C
:10542000FBF74CFE002801D0002010BD0248784454
:1054300010BD0000E2060000DA06000010B50029E9
:105440000AD00878002807D005487844FBF736FED4
:10545000002801D0002010BD0248784410BD000093
:10546000D2060000CA06000021F00042A2F16052FC
:10547000B2F5801F01F0004328BFD2F17F6C0BD939
:105480005FEA001C43EAC20242EB507018BF70474B
:1054900028BF20F001007047B2F5801FBCBF18463E
:1054A00070474FEA410C1CF5001F02D2084600F07D
:1054B00043BA70B500F040F900000089FFF7F6BF6D
:1054C0004FF00040A0F580007047000002494FF007
:1054D000000000F038BA00BF0000F87F491058BF44
:1054E000C1F140415B1058BFC3F140438B42EFF321
:1054F0000080704751EA030C17D41CF5801F58BF79
:10550000BCF5801F00F10680994218BF704708BFA4
:105510009042704707D711F5801F58BF13F5801FC1
:1055200019D499427047894270471CF5801F08D5ED
:10553000BCF5801FF7D58B4218BF704708BF824269
:1055400070474FF4001C1CEB410F38BF1CEB430F9E
:1055500001D28B42704770B500F0EEF892244900FA
:105560004FF000514FF08053FFF7B8BF51EA030CE2
:1055700017D41CF5801F58BFBCF5801F00F10680B2
:10558000994218BF704708BF9042704707D711F57E
:10559000801F58BF13F5801F19D499427047894264
:1055A00070471CF5801F08D5BCF5801FF7D58B42CE
:1055B00018BF704708BF824270474FF4001C1CEBB5
:1055C000410F38BF1CEB430F01D28B42704770B5BF
:1055D00000F0B2F8922449004FF000514FF0805390
:1055E000FFF77CBFDFF848C170B51CEA111E1EBF73
:1055F0001CEA13159EEA0C0F95EA0C0F00F06F8061
:1056000081EA030423EA4C134EEAD47E21EA4C11CA
:1056100041F4801143F48013AE44A1FB024CA0FB83
:105620000365AEF17F7E361955EB0C05A1FB034CEB
:105630004CF10003A0FB021C16EB0C06654153F174
:105640000003094218BF46F0010613F4007F0BD196
:105650004FEA03314FEA0530340341EA155140EA7D
:1056600016506FF003020AE04FEAC3214FEAC5204B
:10567000F40241EA555140EA56506FF0020202EB43
:105680002E4201EB025585EACE710AD05FEA440C46
:1056900018BF24F0004450F1000041F1000120EA5D
:1056A000D47040F2FE7C624500D270BDA84214BFA7
:1056B0004FF080444FF04044002E08BF0024BEF15C
:1056C000806FA8BFA1F1C041BDE8704080F2828028
:1056D0004FF0000001F1C04101F0004170479EEA27
:1056E0000C0F0CEA131518BF95EA0C0F06D04FF0FB
:1056F000000081EA030E0EF0004170BD00F01CF8BE
:105700008900013E00F007B800F009B84FEA430CE9
:105710005FEA5C5C08D081EA030100F05BB84FEA05
:10572000410C5FEA5C5CF6D14FF000000149704724
:105730000000FF070000F87F0EF1020E2EF0030EAE
:105740005EF8046B364205D4012A43EB030515F5D8
:10575000001F12D8012841EB010C1CF5001F0CD8CA
:105760000ED14FEAD17C15F5001F0CEB4C0C0CF15F
:10577000020C08BF4CEBD37C04E04FF0080C01E0B6
:105780004FEAD37C0CEB4C0526FA05F606F007062B
:10579000B6F1040C06D20EEB860CBDE870404CF05E
:1057A000010C6047DFE80CF0090B02024FF00041EA
:1057B0004FF00000A1F5002170BD194610460128E8
:1057C00051EB010418BFD4F5001484BF002001F090
:1057D000004170BD0808A0F500114FEA3101704783
:1057E00053EA010C17D41CF5801F58BFBCF5801F6D
:1057F00000F106808B4218BF704708BF8242704795
:1058000007D713F5801F58BF11F5801F19D48B429D
:1058100070479B4270471CF5801F08D5BCF5801F60
:10582000F7D5994218BF704708BF904270474FF4B0
:10583000001C1CEB430F38BF1CEB410F01D29942F7
:1058400070470FB40CBC03BCFFF7C1BE43004FEA66
:10585000D30C4FEA3C0C43401FBF40070CF1605192
:1058600013F0FE4F70471CF0006F03D100200CF0C6
:10587000004170470CF0004343EA507010B540EA15
:10588000CC0000F00EF800BF000000924FEA0001CB
:10589000FFF7A0BF4FF000414FF00000A1F500213D
:1058A00070470EF1020E2EF0030E5EF8044B2442F8
:1058B00004D44FEA4102B2F17F4F11D84FEA4003BE
:1058C000B3F17F4F0CD80ED14FEAD07CB2F17F4FAD
:1058D0000CEB4C0C0CF1020C08BF4CEBD17C04E03F
:1058E0004FF0080C01E04FEAD17C0CEB4C0324FA9A
:1058F00003F404F00704B4F1040C06D20EEB840C9C
:10590000BDE810404CF0010C6047DFE80CF00708E0
:1059100002024FF00040A0F5800010BD0846420092
:1059200018BFD2F1807288BF00F0004010BD4FF068
:105930004070E1EE100A7047FF2141EAD050C005E7
:105940007047FAF739BE0CF00F03092B08BF082087
:1059500000F05F800A2B0BD0082B18BF704708BFE0
:105960001CF0400F0AD04FF000004FF000017047CC
:105970001CF0400F18BF4FF0004070471CF0100F94
:1059800008D020F0704300F07F4242EAD3014FEA92
:105990004370704700F0604021F07F4242EA00020D
:1059A00001F07F4040EA727070474FF0FF0C4CF4FA
:1059B000E06C1CEA11531CBF9CEA030C9445C2BF67
:1059C000DA4201EB02517047002B0DD0BCF1000F01
:1059D0000FD0002A01F00041A4BF41F0E04141F0A6
:1059E0007F614FF00000704701F000414FF0000070
:1059F000704750EA01334FF09B0C18BF4CF0806C9D
:105A00007FF464AD7047FBF7FBB9FBF797BBFBF77F
:105A100021BD1CF4801F11D01CF4E02F03D06FEACD
:105A2000CC31490070474FF04050EFF3008222F034
:105A3000704242EA000282F3008870474FF0000093
:105A40007047000002400000000000A000000000BD
:105A500005400000000000C8000000000C400000ED
:105A60000000409C00000000194000000020BCBE67
:105A70000000000034400000BFC91B8E000000047D
:105A8000B5400000504BCFD06607E2CF01000000C8
:105A90006C4100003E8251AADFEEA73401000000F5
:105AA000D9420000DCB5A0E23A301F97FFFFFFFFAC
:105AB000B4450000FD25A0C8E9A3C14FFFFFFFFFCB
:105AC000FF3F00000000008000000000FF3F0000DA
:105AD00000000080000000002C5C00080000002096
